:1000000032C500004DC500004BC5000049C50000C9
:1000100047C5000045C5000043C500000C941729E2
:100020003FC500003DC500003BC5000039C50000CC
:1000300037C5000035C5000033C5000031C50000DC
:100040002FC500002DC500002BC5000029C50000EC
:1000500027C5000025C5000023C5000021C50000FC
:100060001FC500001DC500000000000000000000CA
:10007000087F3E1C087F7F08087F7F081C3E7F08A2
:10008000087F7F00007F7F084C5E7202725E4C002A
:10009000C07E3E201E3E2000087F4141414141413B
:1000A0004141414141417F087D7E1311137E7D0016
:1000B0001D3E6341633E1D003F7F4140417F3F0045
:1000C000FFFF4949497F3600317A4A4A7E3D400068
:1000D000183D6642663D18003E7E4140217E7E000E
:1000E0000000020502000000000000000000000007
:1000F00000066F6F06000000000B0700000B0700F2
:10010000367F7F367F7F3600042E2A6B2A3A100016
:100110006373381C0E676300367F49793B6A480079
:100120000000070B0000000000001C3E63410000BF
:10013000000041633E1C000000150A1F1F0A150045
:100140000018187E7E1818000000B0700000000033
:1001500008080808080808000000606000000000A7
:100160006070381C0E0703001C3E6341633E1C0098
:1001700000427F7F4000000062735159494F4600A2
:100180002263414949773600181C16137F7F1000FF
:1001900027674545457D38003C7E4B49497930000D
:1001A000030371790D070300367F4949497F360003
:1001B000064F4949693F1E000000006666000000C6
:1001C000000000A66600000000081C366300000066
:1001D0003636363636363600004163361C080000A7
:1001E0000203696D070600003E635D555D6B2E00DE
:1001F0007C7E1311137E7C007F7F4949497F360046
:100200001C3E6341416322007F7F4141633E1C00ED
:100210007F7F4949494941007F7F09090909010058
:100220001C3E6341497979007F7F0808087F7F0081
:100230000000417F7F41000030704040407F3F0020
:100240007F7F183C366341007F7F40404040400044
:100250007F7F0E1C0E7F7F007F7F0E1C387F7F000C
:100260001C3E6341633E1C007F7F1111111F0E0075
:100270003E7F4151713F5E007F7F0919396F460013
:10028000266F4949497B32000001017F7F0101004F
:100290003F7F4040407F3F000F1F3870381F0F00E6
:1002A0003F7F4038407F3F0063773E1C3E776300CE
:1002B00000070F78780F07006171795D4F474300A1
:1002C000007F7F414100000003070E1C3870600072
:1002D0000041417F7F000000080C0603060C080067
:1002E00080808080808080000000070B000000007C
:1002F000307A4A4A7E3C40007F7F4442627E3C0026
:10030000183C6642426624003C7E4242447F7F00A5
:100310003C7E4A4A4A6E2C0000087E7F090A000093
:100320001C3EA2A292FE7C007F7F0402027E7C0023
:100330000000487B7B4000000040C088FB7B000041
:10034000007F7F08346642000000017F7F000000CC
:100350007E7E027E047E7C007E7E0402067C780027
:10036000183C6642663C1800FEFE2242427E3C007B
:100370003C7E424222FEFE007E7E0402020E0C0003
:10038000246E4A4A4A7A300004043F7F44642000C5
:100390003E7E4040207E7E000E1E3060301E0E00ED
:1003A0003E7E4030407E3E0062761C081C76620035
:1003B0001E3EA0A090FE7E004262725A4E46000091
:1003C000083E7741410000000000007F7F000000F0
:1003D00000004141773E08001C1C1C7F3E1C0800A9
:1003E000FFBD8080BFFFFFFF9D8CAEA6B6B0B9FFFA
:1003F000DD9CBEB6B688C9FFFFBD99E7E799BDFF92
:100400007E424242424242427E425A5A5A5A5A42DC
:100410004242424242427E185A5A5A5A5A427E1820
:10042000FF010203040506076F707172737475761D
:10043000FFFFFFFFFFFFFFFFFFFFFFFFFFFFFFFFCC
:10044000101112131415161718191A1B1C1D1E1F34
:10045000202122232425262728292A2B2C2D2E2F24
:10046000303132333435363738393A3B3C3D3E3F14
:10047000404142434445464748494A4B4C4D4E4F04
:10048000505152535455565758595A5B5C5D5E5FF4
:10049000606162636465666768696A6B6C6D6EFF54
:1004A000FFFFFFFFFFFFFFFFFFFFFFFFFFFFFFFF5C
:1004B000FFFFFFFFFFFFFFFFFFFFFFFFFFFFFFFF4C
:1004C000FFFFFFFFFFFFFFFFFFFFFFFFFFFFFFFF3C
:1004D0000FFFFFFFFF05FFFFFFFFFFFFFFFFFFFF16
:1004E000FFFFFFFF08FFFFFFFFFFFFFFFFFFFFFF13
:1004F000FFFFFFFFFFFF09FFFFFFFFFF0AFFFF0BEB
:10050000FFFFFFFF0CFFFFFFFFFFFFFFFFFFFFFFEE
:10051000FFFFFFFFFFFF0DFFFFFFFFFF0EFFFFFFCE
:10052000000000000000000000E0E000000080404B
:10053000201F007C8282820000C848488808080882
:1005400008FFFF14224180C00000000000000000EE
:10055000001F12120D000000000303000001010142
:10056000027C007F494941000000000000000000BB
:1005700000E0E0000000E0C0A01F00FE92928200B8
:1005800000C848488808080808FFFF142241800076
:100590000000000000000000001F12120D0000000B
:1005A0000003030000000001027C003E41414100C5
:1005B00000008080000000C0C000E0E040404040FB
:1005C000407F00FE82827C00001F2028190000FF6F
:1005D000FF009C9C08081C3E08F80000000000007A
:1005E00000010101010101010100030301010101F9
:1005F000017F00264949320000404040404040C051
:10060000C000E0E04040404040FF004C9292640057
:10061000007C82A2640000FFFF009C9C08083E1C36
:10062000080F0000000000000000000000000001B2
:100630000100030301010101017F007F41413E00F0
:1006400000008080000000C0C000E0E0404040406A
:10065000407F00FE82827C00001F2028190000FFDE
:10066000FF00FFFF08081C3E08F800000000000023
:100670000001010101010101010003030101010168
:10068000017F00264949320000404040404040C0C0
:10069000C000E0E04040404040FF004C92926400C7
:1006A000007C82A2640000FFFF00FFFF08083E1CE0
:1006B000080F000000000000000000000000000122
:1006C0000100030301010101017F007F41413E0060
:1006D00000804040800000000000E0E080808080DA
:1006E00080FF00FE82827C00008F90948C80E0C0AE
:1006F0008080FFFF808080808080000000000000FC
:1007000000000000000003010000030300000000DF
:10071000007F002649493200008080808080C0E050
:100720008080E0E08080808080FF004C92926400B6
:1007300000F80444C80001030000FFFF80808080AF
:1007400080800000000000000000010100000000A7
:100750000000030300000000007F007F41413E00D5
:1007600000000000000000808000E0E00000008049
:10077000403F007C8282820000884848880808FF49
:10078000FF00FFFF14A2C1E0000000000000000015
:10079000000F10140C000000000003030000000014
:1007A000017E007F494941000000000000000080F8
:1007B0008000E0E00000C080403F00FE9292820096
:1007C00000884848880808FFFF00FFFF1422418185
:1007D0000100000000000000000F10140C000000D9
:1007E0000000030300000000017E003E4141410083
:1007F000000000000000000000000000FF00007C7E
:1008000012127C000000000000F00848D00000C177
:10081000C3C7CFDFFFDFCFC7C3C1000000000000A8
:100820000008090908080808080402017F00003CC4
:1008300042424200000000000000000000C0C0C0B2
:10084000C0C0C0C0C0FFC0C0CFC0CFC0C0C00000CB
:10085000E01090A00080E0F8FEFFFEF8E080838FBB
:10086000BFFFBF8F838000001112121110111109F8
:1008700005030101017F010101790101010100006E
:10088000001090901010101010204080FF00007C8D
:1008900012127C0000000000000F10140D0000C1B7
:1008A000C3C7CFDFFFDFCFC7C3C100000000000018
:1008B0000000000000000000000000007F00003C7D
:1008C00042424200000000000040404040800000E2
:1008D0000000E0E08080808080FF003E003E00005D
:1008E00000FE9292820005060708FFFF808080804C
:1008F00080800000000000000000000000000000F8
:100900000000030300000000007F00003E00000024
:100910000000000000000000C0C060606060C0C057
:1009200000000000000000000000000000000007C0
:10093000070080C0E070381F0700000000000000C2
:10094000000000000000000000007373730000004E
:100950000000000000000000000000000000C000D7
:1009600000000000FE003E0814220000000000000D
:1009700000000000000081C1E1F1F9FDFFFDF9F187
:10098000E1C187000000000000000000000000003E
:10099000000000007F0078141478000000000000C0
:1009A000000000000000000000000000FE00000049
:1009B000000000000000000000000000003C3CBD02
:1009C000BDBDBDBDBDBDBDBDBDBD3C3C000000004D
:1009D0000000000000000000000000007F00000098
:1009E000000000000000000000C040408000E02047
:1009F00020705050505070242E2420FE0000000023
:100A00000017141413101F1010FF0101010101FF42
:100A100084848487000000000000000000000000C3
:100A200000030202020202232020007F00000000D7
:100A3000050A0605060A050A0609060A050A060940
:100A4000060A050A0609060A050A0605060A050A2F
:100A500006050A06090A06090A0600000000000049
:100A6000000000110A0611241FBECFEFD8E0DEBF40
:100A7000CDBF11E0A0E0B1E0E4E5FCE702C00590E5
:100A80000D92A031B107D9F721E0A0E1B1E001C09A
:100A90001D92A43FB207E1F70E9446290C94E53D60
:100AA000AFCAA6E0B0E0E7E5F5E00C94313D2B01DC
:100AB0003C01342E480159011E2D49825A826B8215
:100AC0007C8281E08D839AE0C92ED12CE12CF12C1F
:100AD00089819A81AB81BC810A97A105B10560F536
:100AE00089829A82AB82BC8291E09E838AE0C82E82
:100AF000D12CE12CF12C89819A81AB81BC810A97A0
:100B0000A105B10548F5411451046104710409F4CB
:100B10005EC081149104A104B10409F44AC04D815E
:100B2000430DEE80E10EE4160CF443C0ED81FE812E
:100B30004E1559F18FEF53C069817A818B819C8169
:100B4000A70196010E94CD3C29833A834B835C83A5
:100B50009D819F5F9D83BCCF69817A818B819C81C0
:100B6000A70196010E94CD3C29833A834B835C8385
:100B7000AE81AF5FAE83BFCFAAE0B0E0A501940124
:100B80000E94263D4B015C01FF5F9D81F917A4F394
:100B9000AE819A1784F09A1B9983B9818E81B80F20
:100BA000B9839981E9174CF084149504A604B7041D
:100BB00070F481E014C01982F0CFAAE0B0E0A30184
:100BC00092010E94263D2B013C01EF5FEACF81E0BC
:100BD000481459046A047B0408F080E08195269645
:100BE000E1E10C944D3D30919901B0E0A0E0F3E0DB
:100BF000880F991FAA1FBB1FFA95D1F73630C1F491
:100C0000492F5A2F6B2F77274F5F5F4F6F4F7F4FC3
:100C1000E4E0440F551F661F771FEA95D1F7481788
:100C200059076A077B07C0F4841B950BA60BB70B0B
:100C30001092B1001092B20022E02093B0002093F5
:100C4000700023B7217F232B23BF0FB607FC30C0D2
:100C5000789430E0E7E01CC030E0EACFA895AC0122
:100C6000BD018F3F9105A105B10529F020F04FEF9F
:100C700050E060E070E0841B950BA60BB70B415071
:100C80004093B300E093B1002091B100211108C05E
:100C90000097A105B10511F7311101C0F89408952D
:100CA00023B7216023BF889523B72E7F23BFECCFC6
:100CB00031E0D0CFECE8F1E088EC90E091838083E4
:100CC0008CED90E09383828384E190E0958384832C
:100CD0008BE28683178210868FE08187089516BC89
:100CE00081E085BDA99BFECF15BC82E085BB089540
:100CF0009091C401E5E2F1E0911104C0F0E0E0E080
:100D0000CF0108952081281303C021812617C1F344
:100D100091503696F1CF98E087FF07C05B9A5A9AB8
:100D20005A98880F9150C1F708955B98F8CF282FF3
:100D30006B3028F095E041FD05C093E003C091E0E1
:100D400040FDFBCF691708F4962F862F891B2817C3
:100D500020F0960F81E0921708F480E00895B0E04B
:100D6000A0E0E5EBF6E00C94323D7C01C62EA22E0D
:100D7000902E42FB552450F8622E660C812CD0E058
:100D800000E111E0C0E0DD24D394712C4270B42E58
:100D9000CD1410F4872D25C0F7014080492D6A2D10
:100DA000842DC5DF811119C0492D662D842DBFDF2B
:100DB0008823B9F092E08D2D8170D0FC19C0F2E04B
:100DC0005F120DC0915081E0DF5F7394CC0FBB20A8
:100DD000E9F08130E9F4C1601BC091E0ECCF9130C3
:100DE00071F1D11134C0CDB7DEB7E0E10C944E3DC6
:100DF00021E0521204C0913031F490E005C09130EE
:100E000059F180E0EECF92E082E0DECF823019F33C
:100E1000D83051F4F801C0838394F5E0F81510F050
:100E20000F5F1F4FD0E0C0E0CD1009C0923039F401
:100E3000F701A082F1E0EF1AF108C39492E02FEFDE
:100E4000E21AF20AD394592EA3CFCC0FDF5FD83029
:100E5000E0F3F801C083C7CFCD10F0CFE9CFB0E009
:100E6000A0E0E5E3F7E00C94323DA62E842E722E2E
:100E7000602E6C01912CD0E000E111E0C0E0FF2475
:100E8000F394B12CAF1440F48B2DD11135C0CDB7F4
:100E9000DEB7E0E10C944E3DF60141906F01FF2D6D
:100EA000F1705F2EF0FC1CC0DF5FB394CC0F4E2DB1
:100EB000672D842D3CDF811107C04E2D662D842DBA
:100EC00036DF882311F3C160D83081F4F801C08384
:100ED0009394F5E0F91510F00F5F1F4FD0E007C0B5
:100EE0004E2D682D842D23DF882379F25C2EF39418
:100EF000C52DC8CFCC0FDF5FD830E0F3F801C08339
:100F0000C6CF8150E82FE695E695E6958770F0E02C
:100F1000E05FFE4F9081282F392F330F21111AC027
:100F200038E0381B80E021E0880F97FD8160990F41
:100F3000321302C0918131962F5F6217A8F74130BA
:100F400041F4982F80E0880F90FD81609695615064
:100F5000D1F708952150932FDFCF5998DCCE089513
:100F6000599AD9CE0895CF93DF93C82FD62F8F707B
:100F7000F4DF8C2F82958F708061EFDF8D2F806B77
:100F8000ECDFDF91CF910895E9EEF1E08183628398
:100F9000880F880F880F84508093160161506093EA
:100FA0001701E1CF6091ED01861730F4681B66955B
:100FB0006F5F81E0E9CF089561E0FBCFCF93682FA9
:100FC00081E0611104C06091EB018091EA01DCDFF6
:100FD000609117016F3F51F0C09116018C2FC3DF54
:100FE000C43820F480E0BCDFCF5FFACFCF91089502
:100FF00082E0E4DF62E081E0C7CF0895CF93C1E0F3
:101000008C2FDCDFCF5FC930D9F761E081E0BCDF36
:10101000CF910895EF92FF920F931F93CF93DF9399
:101020000091EA01013120F5E82FF0E0E05EFB4F8E
:10103000C491CF3FE9F088E0C89FE0011124C8596E
:10104000DF4F1091160160911701812F8CDF7E0117
:10105000E8E0EE0EF11CFE01849182DF2196CE15B0
:10106000DF05C9F70F5F0093EA01185F10931601BF
:10107000CDB7DEB7E6E00C94583D8F5CCBCF08953A
:101080009091CA01891304C08091CD01C3CF089506
:101090009091CB01891303C08091CE01F7CF80914D
:1010A000CF01F4CF80E0E9DF81E0E7DF82E0E5DF38
:1010B0008DE3B0DF80E0E4DF81E0E2DF82E0E0CFDB
:1010C0000895CF93C82F8091C801E82FEE0FE80F45
:1010D000E60FFF27FF1FE05DF54FE491EE2369F176
:1010E0002091F2018FEF820F6091F301E4FF04C0C1
:1010F0009091F1019695690F3E2F3270E1FF0AC081
:101100009091F001890FE5FF03C0892F8695820F2A
:10111000E3FD6150E2FF06C09091F101690F3111CA
:1011200001C0615031DF8091CA01C81308C08091AD
:10113000CD01883771F48C2FA3DFCF910895809172
:10114000CB01C81303C08091CE01F3CF8091CF01B2
:10115000F0CF8C2F92DFF1CF80E25CCF08958DE24B
:1011600059CF8AE357CF0895A3E0B0E0EAEBF8E067
:101170000C943C3D89836A834B83CE0101967C01AC
:1011800010E0F70101917F01002331F0812F75DF1D
:10119000E8DF802F3FDFE0DF1F5F133091F72396FA
:1011A000E6E00C94583D8A3010F4805D33CF895CC2
:1011B000FDCFCF93C82F82958F70F5DF8C2F8F7066
:1011C000F2DFCF910895CF93C82F81E8C6DE8C2F30
:1011D000C4DEC0939501CF910895B0E0A0E0E3EFA5
:1011E000F8E00C943B3D9C01613009F443C062304F
:1011F00009F449C0E8E0F0E00EE110E0C9E1D0E018
:1012000088EC90E02817390708F446C0A901481B6C
:10121000590BCA01BE010E94A63CDC2ED81A6017E9
:10122000110611F008F0B8017727660F771F8F01BC
:10123000060F171FC8010E94C93D7C01C801029614
:101240000E94C93D9C01E81AF90ADE9CA001DF9CBE
:10125000500D1124CE0196958795840F951FBE01E0
:101260000E94A63CC901860F971FCDB7DEB7E7E005
:101270000C94573DE4EAF0E007E010E0C2E3D0E070
:1012800088EE93E0BFCFE8E4F0E00CE210E0C9E1C3
:10129000D0E08CE291E0B6CF90E080E0BBCFA6E05A
:1012A000B0E0E5E5F9E00C943A3D8D839E83162F7E
:1012B00015B818B880917F01062F017060FFB8C083
:1012C00090917A0194B987B986E080937A0080E49E
:1012D00080937B0080918301806C80937C0084E408
:1012E00080BF0E943529A89510928000109281003D
:1012F000109285001092840087E286BB90917F0156
:10130000612F647012FF99C098B9000000000000BE
:10131000000000000000000000008091810081605A
:101320008093810090E080E021E046B3142F10729A
:1013300045FD8AC040FFF9CF26BB0196803291055A
:10134000A1F71092810020E226BBC0908600D090C9
:10135000870050917A0170917901572B54B917B8D1
:10136000E0918400F0918500CE16DF0628F440FF5E
:1013700003C041E046BB019646E940937A004091A4
:101380007B004F7B40937B00112309F449C0F12C73
:10139000E12CB0E0A0E0AC0133272227C22AD32AF7
:1013A000E42AF52A84E0662331F08FE1C80ED11CCF
:1013B000E11CF11C83E001118F5F90E0B0E0A0E040
:1013C00020E030E0A9018C159D05AE05BF0530F485
:1013D000A7019601281B390B4A0B5B0BA2EEB4E068
:1013E0000E94263D6B017C01E5E0CE0ED11CE11C84
:1013F000F11CC701B6012AE030E040E050E00E9455
:10140000CD3CED81FE8120833183428353830023D1
:10141000E9F0F4EDCF16F0E3DF06E104F104E8F0C3
:1014200080EC80939C01812F2696E8E00C94563D39
:1014300014B890918001892B46CF80918100816002
:101440008093810098B96ECF13E07BCF82EFC816EE
:1014500083E0D806E104F10418F712E0E1CFCF935E
:10146000C82FC09595B160FF11C0982B95B994B164
:10147000892B84B963FF0CC00E94352984B18C2369
:1014800084B985B18C2385B9CF9108959C23EECF83
:101490000E943029F3CFA5E0B0E0E1E5FAE00C943A
:1014A000403D8F7080648983898180937C00807C3B
:1014B0008D8380919C019D81891729F00E943A2992
:1014C000AD81A0939C0180917A00806480937A0022
:1014D00090917A00892F807496FDFACF20E030E059
:1014E000A901E0919A018E1700F1BD81B03C09F08D
:1014F00040C0A0919D01B0919E010E94263DDC015B
:10150000CB012AE0B695A795979587952A95D1F7AF
:101510002E2F30E050E040E0BC01CD010E94CD3CD8
:10152000C9012596E2E00C945C3D90917A009064AC
:1015300090937A0090917A0096FDFCCF60917800AC
:1015400070917900260F371F411D511D843079F4A9
:101550002115B4E03B0758F49D81903C41F09091F7
:101560009B01913021F4A981A06CA9839DCF8F5F4D
:10157000B8CFA0919F01B091A001BFCFCF93C82F4A
:101580000E9431298C2F87DFCF910895CF92DF926F
:10159000EF92FF92CF93DF9300D000D00F92CDB7A0
:1015A000DEB7898315B880917A0184B980917F0173
:1015B00087B988B980918301E1DFDC01049708F4E1
:1015C00046C0C0908C01D0908D01F12CE12CA93740
:1015D00085E0B807A8F18981813091F514B8809130
:1015E0007F0190918001892B87B98091830153DF1E
:1015F000DC0189EF8D8317B818B814B815B820EA44
:1016000036E841E050E00E94263DA70196010E9485
:10161000CD3C2093DF013093E0014093E1015093F2
:10162000E2018D818093E3010F900F900F900F9056
:101630000F90DF91CF91FF90EF90DF90CF900895C2
:1016400080E9C80E8AE1D81EE11CF11CD2CF80913E
:101650007D0184B98091830191DFDC0180EFC82E88
:101660008BE2D82E87E0E82EF12C88EFC3CFCF9302
:10167000C82F0E942F298C2F0EDFCF910895B0E044
:10168000A0E0E5E4FBE00C943A3DE62E042FC3E72E
:10169000D1E0888369834A83C82ED12CC601815446
:1016A0009F4F0E94C13D8E83F12CC70181549F4FF3
:1016B0000E94C13D8F8310E0C80181549F4F0E945A
:1016C000C13D8887C60184549F4F0E94C13D8987D0
:1016D000C70184549F4F0E94C13D8A87C80184542A
:1016E0009F4F0E94C13D8B87C60187549F4F0E9428
:1016F000C13D8C87C70187549F4F0E94C13D8D8794
:10170000C80187549F4F0E94C13D8E87C6018A54ED
:101710009F4F0E94C13D8F87C7018A549F4F0E94EF
:10172000C13D888BC8018A549F4F0E94C13D898B5F
:10173000CDB7DEB7E8E00C94563D43E0461B481BAE
:101740009ECFCF93DF93F9DF17B88091790185B9E8
:1017500090917A01892B84B9809182010FDFEC018D
:101760008091830198DEAC0120919F013091A0010E
:1017700036952795C9014E978C179D0760F4225E18
:101780003F4FC217D30738F48417950720F481E040
:101790004217530708F080E014B8DF91CF91089505
:1017A000CF9361E080E0CDDFC82F62E080E0C9DF49
:1017B000C80F62E081E0C5DF8C0FCF910895E3E7A9
:1017C000F1E04581648183815ACFA6E0B0E0EBEE81
:1017D000FBE00C94363D17B818B815B88FE384B900
:1017E00080E059DE9A83898381E055DE9C838B8378
:1017F00082E051DE9E838D83912C02E018E2FF246B
:10180000F394AA24A394B12C0F5F033009F400E0F1
:10181000C02ED12C892D90E0002E02C09595879581
:101820000A94E2F780FDF0CFC6018A549F4F0E94D0
:10183000C13DE82E30DE9C01F601EE0FFF1F41E0B6
:1018400050E04C0F5D1FE40FF51F80819181281738
:10185000390770F431832083412F4F19550B4431E0
:1018600051051CF41B3E08F41C5EFF24F39407C0D2
:101870002A30310518F4183209F410E5F3942330B6
:101880003105C8F5C5010C2C01C0880F0A94EAF790
:10189000982A87E0981649F11F15C8F581E08093D2
:1018A000BF018093C0010093C501C60187549F4FBB
:1018B0000E94C13D27B1982F9095922397B9C601F8
:1018C00084549F4F0E94C13D182FC60181549F4FE1
:1018D0000E94C13D94B1182B1095192314B98E2D77
:1018E000DADD9093C7018093C60114B817B8269625
:1018F000ECE00C94523D2032334058F687B0C601DC
:1019000087549F4F0E94C13D882A87B8C2CFA895AF
:1019100082E390E068D978CFB0E0A0E0E2E9FCE0B3
:101920000C94323DA89551DF8091BF01813009F4BC
:101930008AC018B88091800187B980918201ABDD9F
:101940002C0180917C0184B985B961E180917B0192
:1019500086DD8091820112DE3C018091790184B99B
:1019600085B961E180917B017ADD8091820106DE9B
:101970006C01809183018FDD7C0127DF8091BF01A5
:10198000813009F460C018B88091800187B98091D6
:10199000820181DD8C0117B880917F0188B987B9F8
:1019A00015B880917D0184B960E180917B0157DD9C
:1019B00080918201E3DDEC01809183016CDDC81729
:1019C000D90708F445C0C81BD90B46018E189F08DB
:1019D00080917A0184B960E180917B0140DD809142
:1019E0008201CCDD5C018091830155DD9C01C50144
:1019F000821B930B17B88815990568F57401E20EE0
:101A0000F31EEA18FB088201E30129EEE21623E047
:101A1000F206C8F4C630D105B0F00C171D0708F562
:101A20000330110538F0CE01801B910B8C01043678
:101A3000110548F0C832D105B8F0C40187599109A1
:101A400089389141D0F1CDB7DEB7E0E10C944E3D3D
:101A5000D0E0C0E0BACFEC18FD08E80EF91E4C014A
:101A6000D4CF0C1B1D0BE3CF15B880917A0184B93C
:101A700080917F0188B987B9809183017FDD8C01D6
:101A80008091790184B98091800188B987B980916A
:101A9000820174DD9C01C80164E170E00E94A63CF3
:101AA000C801861B970B8217930738F6060F171F7E
:101AB0002017310708F0C1CFC6CF8091BF0188231E
:101AC00011F08A3019F484E18093BF018091C40140
:101AD00096E0899FF0011124EB5DFE4F9091730118
:101AE000908390917401918393828282D583C48381
:101AF0008F5F8093C401A7CF20DE15B880917A0153
:101B000084B980917F0187B988B98091830136DDDE
:101B1000813D934008F000CF08952F923F924F925D
:101B20005F927F928F929F92AF92BF92CF92DF92FD
:101B3000EF92FF920F931F93CF93DF93CDB7DEB752
:101B400028970FB6F894DEBF0FBECDBF6C01109280
:101B5000A4011092A5011092A6011092A701109263
:101B6000A801009749F1DC0113968D919D910D908C
:101B7000BC91A02D8D839E83AF83B887E12C00EDAF
:101B800017E020E030E0F6014281BC01CD010E9467
:101B9000510587FF11C0D60111966C9111978C9158
:101BA000CCDD13DE8091BF01813041F40EDE8091E7
:101BB000BF01813009F065C080E027C165E0CE013A
:101BC00001966DDB833009F059C089819A81AB8120
:101BD000BC8105E089389341A105B10538F3D601F0
:101BE00012961C91129713968D919D910D90BC9118
:101BF000A02D8D839E83AF83B8872AE0C22ED12C7F
:101C0000E12CF12C1F3F09F06AC080919001909166
:101C100091010596E0918C01F0918D0120918E014A
:101C200030918F012E0F3F1F6AE070E00E94A63CAA
:101C3000D901A60FB71F8D819E81A80FB91FC9803A
:101C4000DA80EB80FC8000FF68C0A057B54EE057FB
:101C5000F54E26E230E090E7C91697E1D906E10497
:101C6000F10408F468C02CE1C21625E2D206E104B2
:101C7000F10408F0E2C026EF3FEF5DC081119CCF78
:101C800095CF61E0CE0101960ADB01E0823019F5C3
:101C9000D60113968D919D910D90BC91A02D8D83B1
:101CA0009E83AF83B887E12C08E210E020E030E0AB
:101CB000F6014281BC01CD010E94510587FF7CCF16
:101CC00084DD8091BF01813009F476CF62E0CE01DE
:101CD0000196E5DA02E0833009F06ECF80CF1F3F36
:101CE00074F46D817E818F819885A70196010E9491
:101CF000CD3C2D833E834F8358871F5F83CFAAE05F
:101D0000B0E02D813E814F8158850E94263D6D8334
:101D10007E838F839887115075CF2CEDC21625E0F6
:101D2000D20608F4A8CF28E8C21623E1D20608F0AC
:101D300087C02BEF3FEF4091940180919D019091DE
:101D40009E01840F911D47FD9A95032E000C440BB4
:101D5000550B280F391F411D511D4D01B12CA12CD0
:101D60000E94263D9F0150E040E00E94CD3CCA0108
:101D7000B90125E030E040E050E00E94CD3C63E056
:101D8000C9012BDA782E092F17EF9AE0292E312C72
:101D9000412C512C91EAC91696E8D90691E0E90642
:101DA000F10408F050C0A72DB02FA70196010E94A2
:101DB000263D6D837E838F8398878AE0C82ED12C41
:101DC000E12CF12C8D819E81AF81B885813AE6E8C6
:101DD0009E07E1E0AE07B10508F044C0A5019401FB
:101DE000BC01CD010E947E3C1093A40120E137E2AA
:101DF00040E050E00E94CD3C2093A5013093A60125
:101E00004093A7015093A80181E028960FB6F8945B
:101E1000DEBF0FBECDBFDF91CF911F910F91FF901D
:101E2000EF90DF90CF90BF90AF909F908F907F907A
:101E30005F904F903F902F90089524E130E07BCF4A
:101E40002EEC3FEF78CFD701C6010596A11DB11D3D
:101E5000BC01CD01A20191010E94CD3C69017A0132
:101E60001F5F98CF8D819E81AF81B8850596A11D9A
:101E7000B11DBC01CD01A70196010E94CD3C2D836F
:101E80003E834F8358871F5F9DCFCF93DF93EC0135
:101E9000CE010E94C13D811103C0DF91CF91089511
:101EA000B9D82196F5CF58D98091C00180FF05C0DF
:101EB0008EE4B0D883EE92E0E8CF80E5FACF4CD93B
:101EC0008091C00182FF03C08EED92E0DECF89EDEC
:101ED00092E0FCCFDADF40C9EF92FF920F931F939D
:101EE000CF93DF93182F092FC82FD92FFC2EEC2E5C
:101EF000E11ACE010E94C13D811115C09091EC0103
:101F000081E09E1528F0812F8C1B890F86958F5FAD
:101F10006091EB0139D8812F902FB7DFCDB7DEB7B5
:101F2000E6E00C94583D2196E1CF68D881E03AD89C
:101F300085EC92E0D1DFF8940FB6F894A8958091E3
:101F40006000886180936000109260000FBE5E9810
:101F500083B7817F846083BF83B7816083BF8895A7
:101F600083B78E7F83BF0895CF92DF92FF920F9346
:101F70001F93CF93DF93C42FD22F2AE048E151E083
:101F80000E94673D48E151E0FA0101900020E9F725
:101F9000AF0149515140F42E04E6CC2349F04423CB
:101FA00021F0CFEFC40F4130B1F480E333D800E02B
:101FB00088E1C82E81E0D82E10E01F110FC0DD236C
:101FC00011F08D2F27D8DF91CF911F910F91FF90A6
:101FD000DF90CF9008950C2FC0E0EACF101307C018
:101FE0008EE218D8CC2319F080E314D8C0E0F601B3
:101FF00081916F010FD81F5FE0CFA5E0B0E0E3E073
:10200000F0E10C94363D6B017C014D83022F9AE088
:10201000892E912CA12CB12CA0E1CA16A7E2DA06D8
:10202000E104F10408F05EC0BD81B13F0CF46FC063
:102030008B2F815F23E0622F0E94993C9D8399231F
:1020400019F08F5F291B2D83883008F061C090E064
:10205000805090400E94C13D182F4AE068E171E035
:10206000C6010E94883D48E151E0FA01019000203C
:10207000E9F7AF0149515140B42EF42F8D81F81B7F
:10208000F9831F1664F080E30E940A088EE20E9422
:102090000A089981992319F080E30E940A08AD810A
:1020A000A11102C0BFEFB983E981E15088E1C82ED8
:1020B00081E0D82EF12CE12C8E2F082E000C990BEC
:1020C0009A838983EB1430F1112319F0812F0E9438
:1020D0000A08002319F0802F0E940A082596ECE0D8
:1020E0000C94523DD701C6010596A11DB11D8983EF
:1020F0009A83AB83BC83BC01CD01A50194010E94EE
:10210000CD3C69017A019D819F5F9D8385CF1D82B2
:1021100010E0A3CFD6018D916D010E940A08E981DC
:10212000FA81EE15FF0519F48EE20E940A08FFEF0E
:10213000EF1AFF0AC7CFA4E0B0E0E1EAF0E10C94A7
:10214000403D69830E940A0886EF92E09EDE898105
:102150000E940A0801D8E9EAF1E083819481A5810F
:10216000B68124E04281BC01CD0147DF2496E2E044
:102170000C945C3DA4E0B0E0E0ECF0E10C943F3D59
:102180008091A1019091A2019A8389838438A3E070
:102190009A0740F08115B9E19B0738F01EE0883EB0
:1021A0009C4108F01FE08DE002C01EE08CE00E9420
:1021B0000A08812F0E940A080E94AC0889819A812E
:1021C0008438934038F481EC92E05FDE2496E3E0BB
:1021D0000C945B3D89819A816AE070E00E94A63C84
:1021E000B0E0A0E026E54EEFCD0107DFEFCFA4E0A1
:1021F000B0E0EDEFF0E10C94403D85E04CD99C015E
:10220000A0EDB7E00E94113D28EE33E040E050E041
:102210000E94CD3CC9018C559E4F9093A2018093A2
:10222000A10184E68093A301205E31402C37354123
:1022300040F40E94FE079EDF88EB9BE00E94F305BE
:1022400074DE2496E2E00C945C3DB0E0A0E0EBE2AA
:10225000F1E10C94383D7C01162F80919801D12C2E
:10226000C12C85FF03C088E7C82ED12C12FF05C002
:102270008091970180FD47C01C7F812F8370B82E0D
:1022800039F068E080E10E94C4078EE30E940A08EA
:10229000D0E0C1E000E0812F8270A82EE114F104AB
:1022A00039F086E0E816F10488F185E0E81AF108D3
:1022B0004F9938C08EE190E00E94F305D0E0C11143
:1022C00027C0C12FC87001E013FF62C082E390E015
:1022D0000E94F305C4E101E04F990CC08EE190E04B
:1022E0000E94F3054F9906C088EC90E00E94F30528
:1022F000C1E003E0C1508AE090E00E94F305C11103
:10230000EBCFD0E045C0F12CE12CB7CFC0E0D0CF6F
:102310004F99D7CFDF5FDB31C9F18AE090E00E94AF
:10232000F305CDCF85E090E00E94F305DF5F8D2FB0
:1023300064E10E948D3C911107C08091A30182301D
:10234000E0F081508093A301D43611F5AA2051F01A
:1023500068E080E1C13099F40E94C40780E20E94E5
:102360000A08C2E0C114D10461F281E0C816D104A8
:1023700051F181E0C81AD108C4CF39DFE5CF0E94FE
:10238000C4078EE30E940A08C1E0ECCFC0E002E07F
:102390008091980180FF1BC0809198018E7F80936F
:1023A0009801BB2039F068E080E10E94C40780E218
:1023B0000E940A08073609F4B8DD802FCDB7DEB7D2
:1023C000EAE00C94543DD0E0C0E007E6E1CFC11153
:1023D00065CFE7CFCF936091EB018091ED0186133C
:1023E0001CC0C091E901C0FF04C065E188EB9BE01F
:1023F0002CDFC1FF0EC0C091ED01C23028F462E0B5
:1024000081E00E94C40707C08C2F0E94DE07C150E4
:10241000F4CF0E94FE07CF9108956F5FF1CF0F9325
:102420001F93CF93DF93C82F00E011E0D3E0811119
:1024300003C0D0E007E011E0B3D9D81791F00E94B3
:10244000FE0782E00E94D207C80146DDC3DF81EFAC
:1024500090E042DDA5D9D8130AC088EC90E00E9434
:10246000F30581E0DF91CF911F910F91089560E115
:1024700084E690E0EADEC13069F7882359F380E012
:10248000F1CF6230C9F065ED70E090E0ECE8F1E08A
:102490002191920F21E0E639F207D1F7911101C0A5
:1024A00091E0909396014BE050E0823041F48CE84B
:1024B00091E00C94CE3D089560EE70E0E6CF8CE89C
:1024C00091E00E94B13D80E0ECE8F1E09191890F4C
:1024D00091E0E639F907D1F7909196019923B9F087
:1024E000811101C081E0981791F00E94FE0782E0FF
:1024F0000E94D2078CEC90E0EFDC6CDF82EB92E084
:10250000EBDC80ED97E00E94F3050C945A060895E9
:10251000CF93DF93D82FC92F5DDF8D2F9C2FB5DC94
:102520000E94AC08DF91CF910895EF920F931F9313
:10253000CF93DF9300D000D000D0CDB7DEB78E832D
:102540009D838091DF019091E001A091E101B09124
:10255000E20189839A83AB83BC8327EFE22E02E3F7
:1025600010E020E030E04091E301BC01CD010E9489
:10257000510587FD11C08E819D81CADF8091DF01E9
:102580009091E001A091E101B091E20121E440913C
:10259000E301BC01CD0131DD26960FB6F894DEBF14
:1025A0000FBECDBFDF91CF911F910F91EF90089596
:1025B000A4E0B0E0EEEDF2E10C94403D8091BF016B
:1025C000823229F585ED92E060DC04DF0E9452083A
:1025D0008091D1019091D201892BA9F08AEC92E0EF
:1025E00097DF8091D1019091D2019C0150E040E0B1
:1025F00029833A834B835C8326E54DEF69817A8199
:102600008B819C81FADC2496E2E00C945C3D8FEC9B
:1026100092E0DACFEF92FF920F931F93CF93DF9365
:102620002091F1013091ED0193E0920F391708F4F8
:1026300041C09091EC01903128F02F5F280F2317B3
:1026400008F43DC03093EB01C5DE93E083E0909346
:10265000F2018093F30160E08091CA010E94610859
:1026600061E08091CB010E94610862E08091CC0121
:102670000E9461086091F3018091F2010E94C407F9
:10268000C091C80188E4C89FE0011124C05EDA4F00
:102690001091170102E0010F7E01E8E1EE0EF11C3E
:1026A000FE0184910E94B0072196CE15DF05C1F787
:1026B00001130AC0CDB7DEB7E6E00C94583D9F5F2A
:1026C0002091F001921BC3CF1F5F612F80911601F3
:1026D0000E94B307E1CF82E00E94D20782E093E03C
:1026E000FBDB78DE8BEF92E0F7DB8EE08093C801B6
:1026F00083E090DF8091BE018F5F8093BE010895DB
:10270000CF93C82F0E94F8078C2F90E0DC01A050D7
:10271000BF4FFC01EB5FFE4F865F9E4F4C91608187
:10272000FC0180810E94B40860E188E893E18DDDBE
:102730000E94F807CF910895A6E0B0E0E2EAF3E145
:102740000C94343D762E5A01690199249A94980E7E
:102750006090ED0188248A94860C0E94B10822E0E2
:102760002D8310E01E826A946A9431E0831204C0C3
:102770004D814F5F4D831E81E12EF12CEE0CFF1C2D
:10278000EA0CFB1C00E0081508F141E0841209C0C6
:102790006091ED018091EC010E94C4078CE30E94DE
:1027A0000A0884E690E00E94F30560E190E080E092
:1027B0004CDD8D83813009F058C05E81951246C092
:1027C000981408F05BC010E01E82CFCF62E0600F6B
:1027D00081E00E94C40751E0581540F4812F800F1A
:1027E0009E8189131EC08AE20E940A08ED81E130B1
:1027F00079F0F1E07F1218C0F7018081918145DB0B
:10280000C114D10411F0C60140DB80E00E94DE0754
:1028100032E0E30EF11C0F5F901608F0B4CF082DE4
:10282000B2CF0E94AC08E2CFC7010E94C93D9C0113
:1028300050E040E029833A834B835C8320E040E012
:1028400069817A818B819C81D8DBDACF8E818F5F21
:102850008E83862D810F9E81981387CF991508F05E
:1028600084CF1F5FE2E0ED8380CFFD81F23061F025
:10287000F73639F45ADB21E02D8377CF32E03D8300
:10288000A2CF41E04D8371CF0E94FE0784EF91E01B
:102890000E94F3058E812696EEE00C94503DA9E04F
:1028A000B0E0E5E5F4E10C943F3D182F8EEE90E0AA
:1028B0009A83898381E08F838BEE90E09C838B8366
:1028C00082E088878DE791E09E838D8319860E9440
:1028D000FE0787E991E0123011F082E991E0D5DA44
:1028E00030E020E0AE014F5F5F4F61E083E024DF26
:1028F000FE01E80FF11D6781662311F0812FC1DD14
:102900002996E3E00C945B3DCF92DF92EF92FF9229
:10291000CF93DF936B017C01C42FD22FF7FE0AC047
:102920000E94AF08F094E094D094C094C11CD11CD4
:10293000E11CF11C2D2F4C2FC701B6015EDBDF918E
:10294000CF91FF90EF90DF90CF900895A6E0B0E098
:10295000ECEAF4E10C943D3DF090C0011091CB0104
:102960000091CC01F0FC03C0802F012F182F612FA4
:10297000802F0E9478068D839E832D813E81232B9C
:1029800059F00E94AC08802F0E94400881E00E940C
:102990000A08812F0E944008F3FC6CC08091D3018B
:1029A0009091D401892BB1F082EF92E0B1DD80915A
:1029B000D3019091D4019C01990F440B550B2983AD
:1029C0003A834B835C8326E54DEF69817A818B8165
:1029D0009C819ADF8EEE92E09BDD8091E4019091E4
:1029E000E501A091E601B091E70189839A83AB8369
:1029F000BC8326E44091E801BC01CD01FEDA809160
:102A0000D1019091D201892BA9F08AEE92E080DD6C
:102A10008091D1019091D2019C0150E040E0298346
:102A20003A834B835C8324E04EEF69817A818B810A
:102A30009C81E3DA4D815E81452BE1F0CBDC81E0C6
:102A40000E940A080E94AC0887EE92E043DAAD814A
:102A5000BE8112968D919C919C0150E040E02983AB
:102A60003A834B835C8326E54DEF69817A818B81C4
:102A70009C81C3DA2696E5E00C94593DA4E0B0E0D1
:102A8000E4E4F5E10C943E3D81E08093E9010E948D
:102A9000FE078AEC91E01EDAECE8F1E0808191819A
:102AA0009C0150E040E029833A834B835C8324E01F
:102AB0004FEF69817A818B819C819FDA86EC91E06E
:102AC00027DD80918E0190918F019C0150E040E0C4
:102AD00029833A834B835C8324E04FEF69817A81B9
:102AE0008B819C818ADA83EC91E012DD80919201E6
:102AF000282F30E050E040E029833A834B835C8309
:102B000026E444EF69817A818B819C8176DA87EDB6
:102B100091E0FEDC80919001909191019C0150E048
:102B200040E029833A834B835C8324E04EEF698144
:102B30007A818B819C8161DA8EEB91E0E9DC07E997
:102B400011E0F801868197819C0150E040E02983E3
:102B50003A834B835C8326E54DEF69817A818B81D3
:102B60009C814BDA88EC90E0D3DCF801808591857C
:102B70009C0150E040E029833A834B835C8326E547
:102B80004DEF69817A818B819C8137DA82EC90E00C
:102B9000BFDC80919401282F880F330B440B550B19
:102BA00029833A834B835C8326E54DEF69817A81E3
:102BB0008B819C81A9DE65E188EB9BE046DB249656
:102BC000E4E00C945A3DA4E0B0E0E9EEF5E10C94A9
:102BD000403DFC01362F242F8CE0860F63E00E94DD
:102BE000993C913059F4E436F10540F48AE0AF01A4
:102BF000849FF001859FF00D11243150B0E0A0E0DA
:102C0000432FBF01CD01F9D92496E2E00C945C3D3D
:102C1000ADE0B0E0EEE0F6E10C94303D4B015C013C
:102C2000142F2987EB862C3009F432C1283109F49E
:102C30003BC1D12C263009F0E3C046E04D834FE084
:102C4000242E43E0342E2AC1C501B401A301920110
:102C50000E94CD3C49015A011F5F50EA851656E893
:102C6000950651E0A506B10478F780E1881687E261
:102C70009806A104B10408F41EC1B401C5012AE0FC
:102C8000C22ED12CE12CF12C69837A838B839C8317
:102C9000A70196010E94CD3C2901B901CA011A87FA
:102CA0001F5F29813A814B815C8120313742410588
:102CB000510550F71D861C86F12CCC84DD84C101A2
:102CC0000E94C93D8C879D872C853D85241535053F
:102CD00068F432E0230E311CF3944D81F412EDCFF1
:102CE000CC84DD8488EE93E09D878C879601A4E6F2
:102CF000B0E00E94113D69837A838B839C83402ED0
:102D0000512C712C612CA02FB0E09B01AC010E94D2
:102D1000263D28EE33E040E050E00E94CD3C898122
:102D20009A81AB81BC81280F391F4A1F5B1F281570
:102D300039054A055B0508F4C8C0212F023340F06D
:102D4000C6016AE070E00E94A63C6B012A852E5FF6
:102D5000C601B0E0A0E08093DF019093E001A09372
:102D6000E101B093E2012093E301DD24D3942C85AB
:102D70003D85A4E6B0E00E94113D69837A838B8390
:102D80009C83A30192010E947E3C28EE33E040E048
:102D900050E00E94CD3C89819A81AB81BC81821B2D
:102DA000930BA40BB50B88169906AA06BB0640F137
:102DB000AC85BD85A83EB34031F41A851E5F24E67C
:102DC00030E03D872C87023348F08C859D856AE092
:102DD00070E00E94A63C7D876C871F5F4C855D85F7
:102DE000CA01B0E0A0E0D11072C08093DF019093DF
:102DF000E001A093E101B093E2011093E301D394C9
:102E0000E9DA85E40E940A089985892F90E0B0E00C
:102E1000A0E020E040E0BC01CD01A6D80E94AC08B3
:102E2000802F6AE00E948D3C282F30E050E040E087
:102E300029833A834B835C8325E240E069817A8170
:102E40008B819C8191D80E94AC08DD2009F44AC096
:102E50003091EA0139834B856091E3018091DF0174
:102E60009091E001B0DE42E0D4120EC0B3DA60917E
:102E7000EB0189810E94C4074B856091E801809134
:102E8000E4019091E5019FDE2D96E2E10C944C3D2A
:102E90002CE02D836BE4262E63E0362E3AE0432EA1
:102EA000512C612C712CD9CE38E13D835BE1252E6C
:102EB00053E0352EF3CFAAE0B0E0A50194010E94C3
:102EC000263D4B015C011150D0CED12C50CF8093C8
:102ED000E4019093E501A093E601B093E70110931C
:102EE000E8018DCF0E94AF08CFCFA6E0B0E0EBE7BE
:102EF000F7E10C943A3D8091C301813009F054C050
:102F0000F090A90110E000E089EA91E09E838D83B2
:102F1000ED81FE8180818F1509F4A5C00E943D08D6
:102F200086EF92E00E94450F8F2D0E943D0801150B
:102F3000110559F086EF92E00E94450FF80180815B
:102F40008F1509F495C00E943D0844DAAD81BE8119
:102F500013968D919D910D90BC91A02D89839A839C
:102F6000AB83BC8324E0ED81FE814281BC01CD01B5
:102F700044D80115110509F47DC00E94AC08D801A0
:102F800013968D919D910D90BC91A02D89839A836C
:102F9000AB83BC8324E0F8014281BC01CD012DD874
:102FA0002696E8E00C94563D833009F055C039EA86
:102FB000C32E31E0D32EA0EBB1E0BE83AD83F6018A
:102FC0000381148125813681AD81BE8113968D9157
:102FD0009D910D90BC91A02D89839A83AB83BC8376
:102FE000E280ED81FE814281BC01CD010E9451054C
:102FF000813011F4CD80DE808D819E8107969E8385
:103000008D838E5B9140D9F6B9EACB16B1E0DB0631
:10301000F1F4E0EBF1E0FE83ED830D811E81095FA9
:103020001F4FC016D10621F40D811E81025F1F4F74
:10303000ED81FE818081D801FC908F1509F468CF65
:103040001196FC908F1509F463CFF18061CF89EA66
:1030500091E09E838D83E1CF00EB11E0A9EAB1E01E
:10306000BE83AD83E5CFAD81BE8111968C9156CFE5
:10307000818169CF8D819E810E948D0D813071F497
:103080000E94AC088091A5019091A601A091A70192
:10309000B091A80128E44091A4017FCFAD81BE8109
:1030A00013968D919D910D90BC91A02D89839A834B
:1030B000AB83BC8324E0E22E02E328E1ED81FE81B4
:1030C0004281BC01CD01A4DDAD81BE8113968D91FD
:1030D0009D910D90BC91A02D89839A83AB83BC8375
:1030E0000AE028E1ED81FE814281BC01CD0190DD45
:1030F00057CFA8E0B0E0EFE7F8E10C94363D182F89
:103100000E94E50B8091BF01813009F4B5C018B869
:103110008091800187B98091790185B984B90E9435
:10312000302982E090E09E838D83C12CD12C7601E2
:1031300080918201A895806C80937C000E943A293E
:1031400080917A00806480937A0080917A0086FD75
:10315000FCCF04E6812C912C540180917A0080648C
:1031600080937A0080917A0086FDFCCF8091780070
:1031700090917900880E991EA11CB11C0E943729DC
:10318000015059F7A0919D01B0919E01A5019401B4
:103190000E94263D69837A838B839C834B015C016B
:1031A0008AE0B694A794979487948A95D1F78D81F5
:1031B0009E81019779F415B88091800190917F01EB
:1031C000892B87B98C149D04AE04BF0458F090E09D
:1031D00080E04BC091E09D831E8275016401809167
:1031E0008301A8CF20919F013091A001A4E6B0E017
:1031F0000E94113D9B01AC012C193D094E095F094C
:103200000E94263D69837A838B839C83A701960164
:10321000281939094A095B09A8EEB3E00E94263D46
:103220006D837E838F83988720918E0130918F01EB
:103230002057354E50E040E069817A818B819C8136
:103240000E94CD3C6D817E818F8198850E94CD3C0E
:10325000C901113051F46091900170919101621790
:10326000730708F0B4CF861B970B20EC20939C01CA
:103270002896ECE00C94523D90E080E0F9CFABE072
:10328000B0E0E5E4F9E10C94303DA89518B88091E0
:10329000800187B98091790184B985B980918301D2
:1032A0000E94BE0A4C01809182010E944B0A8887CD
:1032B000998715B880917C0184B9809182010E9420
:1032C000BE0A459750F580917C0185B980918201B5
:1032D0000E94BE0A8C0180917F0187B988B915B818
:1032E00080917A0184B9809182010E94BE0A3C01DA
:1032F000809183010E944B0A5C0180917D0184B919
:10330000809183010E94BE0A6C0128853985203393
:10331000314138F40236110540F02B96E2E10C946D
:103320004C3D0C3653E11507C0F769EAA616B10407
:1033300008F07AC086E2C816D10478F3D80120EFED
:103340003BE247E050E00E94263DA0919F01B091F2
:10335000A001B987A8879D01201B310B50E040E0F8
:103360000E94CD3C49015A01A885B985AC19BD0917
:1033700020EF3BE247E050E00E94263D69837A83DC
:103380008B839C83960150E040E00E94CD3C0E3D33
:10339000B3E01B0768F592E0880C991CAA1CBB1CC3
:1033A0009A95D1F7DA01C901880D991DAA1DBB1D97
:1033B00089839A83AB83BC83BC01CD0125E030E0D7
:1033C00040E050E00E94CD3C225A3E4F4F4F5F4FAD
:1033D000AAE0B0E00E94263D4B015C0144E6841661
:1033E0009104A104B10408F4C4C04FEF4A87F8C0A7
:1033F0009EEDC91693E0D90670F482E0220F331FC8
:10340000441F551F8A95D1F7D501C401820F931F20
:10341000A41FB51FCDCF280D391D4A1D5B1D569524
:10342000479537952795D0CFA885B985A815B905B3
:1034300008F494C06A147B0408F490C040919F0182
:103440005091A0014A175B0719F41197B987A88713
:1034500020918E0130918F012057354EA885B98576
:10346000A819B9090E94113DE885F9854E1B5F0B2B
:103470009A0150E040E00E94CD3C69017A01209120
:103480008C0130918D012057354ED301AA19BB090B
:103490000E94113D69837A838B839C83950150E060
:1034A00040E00E94CD3C888599858E3D9340E0F4B4
:1034B000A2E0CC0CDD1CEE1CFF1CAA95D1F7DA01B2
:1034C000C9018C0D9D1DAE1DBF1D89839A83AB83E1
:1034D000BC83BC01CD0125E030E040E050E00E941B
:1034E000CD3C49015A017ACF9EEDA91693E0B90669
:1034F00050F5283FA4E23A07A1E04A07510570F4CD
:10350000F2E0220F331F441F551FFA95D1F7D70160
:10351000C601820F931FA41FB51FD7CFA9E0B0E04B
:103520000E94263D9B01AC012C0D3D1D4E1D5F1DD3
:1035300029833A834B835C83CA01B9012AE030E0D6
:1035400040E050E0CCCF46015701820E931EA41EEE
:10355000B51EB694A7949794879440CF3FE8A316DE
:1035600032E1B30608F473C07AE0872E912CA12CC7
:10357000B12C81E0BEDD6C01F12CE12CA5019401A0
:10358000220F331F441F551F65E086169104A104C6
:10359000B10420F4280D391D4A1D5B1DAAE0B0E0DE
:1035A0000E94263D69837A838B839C83672B682BDB
:1035B000692B41F484E690E0A0E0B0E089839A832F
:1035C000AB83BC8329813A814B815C81C216D306CF
:1035D000E406F50608F03FC0460157013EEF3A8782
:1035E0006091C3016B87809173018E838091730119
:1035F00090917401B82FA92FB987A887B091740151
:10360000BF83E091BF01ED8320E097E0F92EAB8509
:103610002A1720F1BD81B093BF01243609F47DCE75
:10362000A33008F07ACE27E0A29FF0011124E755DD
:10363000FE4F488559855183408383829482A582B9
:10364000B6825A855283AF5FA093C30166CE812CA8
:10365000912C54018ECF5FEF5A87C2CF222E312C8E
:10366000F29EC0011124AC0147555E4F6A01DA0198
:103670008C91BE818B1391C0FA018181FF818F13E0
:103680008CC0E12C02E010E020E030E04A85C5016A
:10369000B4010E9451058F3F09F074C0D601129603
:1036A0007C901297F601339613964C90518062806D
:1036B000C38002E010E020E030E0472DB201862D0B
:1036C0009C2D0E945105D82EBFEF8B131EC0EA859A
:1036D000E71102C0DD24D394EA8495018401472DCB
:1036E000B201862D9C2D0E9451058D1509F445C00F
:1036F000F29CF001F39CF00D1124E755FE4F8382FC
:103700009482A582B6822A8522832401350176948B
:10371000679457944794F29CF001F39CF00D1124A8
:10372000E755FE4FD28083819481A581B68189833C
:103730009A83AB83BC83EA8495018401041915093B
:10374000260937094D2DBC01CD010E94510587FD89
:1037500026C095018401040D151D261D371DEA8420
:103760004D2D69817A818B819C810E9451051816AB
:10377000B4F09AE09D8324E64ACF7A864201A62CD3
:10378000BC2CC3CFC501B40124E130E040E050E0DF
:103790000E94CD3C29013A01BECF2F5F38CF28ECE3
:1037A00036CFEF920F931F931092C3010E949D0B8F
:1037B00066DD8091C3018130A9F40091AC011091C4
:1037C000AD012091AE013091AF01E090AB0143E03B
:1037D00069E170E080E090E00E945105982F81E05F
:1037E000913009F080E01F910F91EF900895A7E0CC
:1037F000B0E0EDEFFBE10C94303D8E839F832E8192
:103800003F81232B51F46FEF7FEF7A8369838981A6
:103810009A812796E2E10C944C3DAE81BF811396CC
:103820008D919D910D90BC91A02D89839A83AB833E
:10383000BC8367EFE62E0AE010E020E030E0EE8186
:10384000FF814281BC01CD010E94510587FDDBCF84
:103850000E94E50B8091BF018130A9F2AE81BF814A
:103860001196FC901197EC9017B818B814B815B8C9
:103870006F2D8E2D0E949D0B80917F0187B98091C5
:1038800083010E944B0A8C018091800187B980914D
:1038900082010E944B0A0817190720F46E2D8F2D04
:1038A0000E949D0B80917F0187B980917A0184B934
:1038B00012E3809183010E944B0A9C018039914060
:1038C00040F487B190918001892B87B92832310566
:1038D00038F0115029F084E690E00E94F305E9CF1A
:1038E00017B814B8EE81FF81618180810E949D0B21
:1038F0000091820180918301006C806C8D8315BCE6
:1039000082E084BD81E287BD18B800937C000E94EC
:103910003029FFEFF983812C912C54018394412CA1
:10392000512C3201439452E3C52ED12C90E080E01B
:1039300016EDA895C29758F48091800187B98091BF
:10394000790185B984B90E94432914B815B822E3D6
:10395000C216D10458F480917F0187B980917A0111
:1039600085B984B90E94432914B815B880917F01A4
:1039700087B98091790185B984B900937C0010934F
:103980007A0080917A0086FDFCCF10937A008091B6
:103990007A0086FDFCCF20907800309079003D8140
:1039A00030937C0010937A0080917A0086FDFCCFE2
:1039B00010937A000E943F290E946F0680917A013D
:1039C00085B984B90E94432914B880917A0086FD94
:1039D000FCCFC0907800D09079008091800187B9A9
:1039E00080917A0185B984B96D8160937C001093D0
:1039F0007A0080917A0086FDFCCF10937A00809146
:103A00007A0086FDFCCFE0907800F090790000937A
:103A10007C0010937A0080917A0086FDFCCF109391
:103A20007A000E943F290E946F068091790185B932
:103A300084B90E94432914B880917A0086FDFCCF96
:103A40008091780090917900A70170E060E0420DCC
:103A5000531D611D711D440E551E661E771EAC015F
:103A600070E060E04C0D5D1D611D711D840E951EA2
:103A7000A61EB71E79817150798371115ACF17B87C
:103A800015B8481459046A047B0408F052C08091A8
:103A90008C0190918D012AE0289FD001299FB00DC3
:103AA0001124A501940124193509460957090E94DA
:103AB000263D69837A838B839C83A30192010E94B4
:103AC000CD3C80919001909191018217930758F419
:103AD000D901A81BB90BBA83A98380EC80939C0100
:103AE0000E94E50B94CEAE81BF8113966D917D91BE
:103AF0008D919C91169769837A838B839C832AEF9F
:103B0000E22E08EE13E020E030E012964C910E9485
:103B10005105E1E0F0E0FA83E983181614F41A8203
:103B2000198229813A813195219531093A83298376
:103B3000D4CF6FEF7FEF7A836983CFCFA9E0B0E076
:103B4000E4EAFDE10C94333DF82ED62EA42EB12CE0
:103B50002EE0429FF0011124E75BFE4F108211829C
:103B600084EF828317821086118612861382148254
:103B700015821682148613868091BF01813009F464
:103B8000F2C08A3069F49090C30189EA91E09E8383
:103B90008D83C12CC91408F45CC094E6C912E3C03B
:103BA0006D2D8F2D0E947806FC01892B31F08281CA
:103BB00093818C3D954008F4D6C06D2D8F2D0E94C9
:103BC0009D0BF2E0EF2EF12CA1E16A2EB3E07B2EEB
:103BD0000E94E50B8091BF01813009F4A9C018B89B
:103BE0008091800187B980917A0185B984B98091EB
:103BF00082010E944B0A6C01809183010E944B0A52
:103C0000C81AD90A15B814B810E000E00F5F1F4FAA
:103C1000662D809179010E942F0A809182010E9475
:103C20004B0A89839A83E981FA81CE16DF060CF06C
:103C300087C1EC19FD09FA83E9830E37110509F0F4
:103C400085C1EB34F1050CF086C1A8950EE710E0B4
:103C500089C1AD81BE818C918F1104C011969C9158
:103C60009D1539F08D1121C0ED81FE8181818F116B
:103C70001CC0AD81BE8113968D919D910D90BC911C
:103C8000A02D89839A83AB83BC83E12C0AE010E0EA
:103C900020E030E0ED81FE814281BC01CD010E9437
:103CA00051058F3F11F483E6C82EC3948D819E8108
:103CB00007969E838D836ECFEE24E394F12C88CFFC
:103CC000A89550C1E3E07E122FC0809182010E942E
:103CD0004B0A7C01480130E020E080918201811490
:103CE000910409F044C02E153F0508F048C0E21ABF
:103CF000F30A25E6E216F10408F0712C0E944B0A43
:103D00006C01862D8071582EE9F10E942529809141
:103D100082010E944B0A8C159D0518F44601881AF1
:103D2000990A93E0791689F1A2E07A1609F432C172
:103D30009091BF01943188F48EE08A9DF0018B9DB3
:103D4000F00D1124E75BFE4F82819A3009F0EBC041
:103D50008A3F1CF08BE08093BF010E94E50B17B8EF
:103D600018B814B815B82996EFE00C944F3DF1E05F
:103D70008F1A91080E944B0A9C01A895AECFF12C96
:103D8000E12CBCCF0E942A29C2CF62E089819A81AE
:103D90008E0D9F1D0E94ED089C01D8010E94113DCF
:103DA00069837A838B839C83552051F0AAE0B0E02D
:103DB0009B01AC010E94263D69837A838B839C839F
:103DC00089819A81AB81BC818833E9E89E07E1E46F
:103DD000AE07B10508F46DC0BC01CD0128EE33E09B
:103DE00040E050E00E94CD3C29833A834B835C83C2
:103DF000FAEFF987A8EEB3E029813A814B815C8123
:103E00000E94263D6D837E838F83988722E434E071
:103E100040E050E0511008C06D817E818F8198850F
:103E200020E134E040E050E00E94CD3C8EE08A9DED
:103E3000F0018B9DF00D1124E75BFE4F8091730123
:103E40009091740198278927982791838083898589
:103E5000828389819A81AB81BC8187839087A18786
:103E6000B28723833483458356837AE0C72ED12CCF
:103E7000E12CF12C2130A5E33A07ACE04A075105CB
:103E8000D8F4D4010E94263D69837A838B839C8376
:103E900028EE33E040E050E00E94CD3C63FE03C0DA
:103EA000B985BF5FB9876AE0C62ED12CE12CF12C11
:103EB00016C027EF29879ECFCA01B901A701960135
:103EC0000E94CD3C99859F5F9987D4CFCA01B901E3
:103ED000A70196010E94CD3CE985EF5FE987211596
:103EE0003105F1E04F07510588F78EE08A9DF0011A
:103EF0008B9DF00D1124E75BFE4F348723872985C6
:103F0000258716CF8091800178C014EFE7C0173F56
:103F100009F00ECFB1E2CB16BEE4DB06E104F104FA
:103F200008F435C105CF853F0CF014CF838194810F
:103F3000A581B6810597A105B10508F00BCF0DCF7E
:103F400019821A820E37110509F47FCE043FF1E081
:103F50001F0709F4B5CEA89589819A818C329140CA
:103F60000CF454CEE981FA81EC32F14014F4772458
:103F700073940130110509F0A5CE89819A818531AC
:103F800095400CF49FCEE9E06E2EB1E0EB16F10403
:103F900009F092CE0E94E50B8091BF01813009F4B7
:103FA000C7CE15B887E087B918B880917C0184B96D
:103FB00080E480937B0084E480BF809182018064F0
:103FC00080937C0086E080937A000E9439291092C9
:103FD000800010928100109285001092840087E288
:103FE00086BB80917C0185B98091BF018F3109F03A
:103FF00089CF80917F018095877091E090938100B7
:1040000087B9F12CE12C86B385FD0CC080FFFBCF76
:1040100096BBA895AFEFEA1AFA0AB0E4EB16B6E041
:10402000FB0689F71092810090E296BBC090860053
:10403000D090870014B82091840030918500C2167A
:10404000D30638F480FF05C081E086BBEFEFEE1A9F
:10405000FE0A86E980937A0080917B008F7B8093B3
:104060007B00809182010E944B0A8D839E8315B84C
:1040700080917C0184B9F0E4EF16F6E0FF0608F0C9
:1040800057CEC601B0E0A0E06701F12CE12C76012B
:10409000DD24CC24C82AD92AEA2AFB2A23E0C21626
:1040A000D104E104F10408F430CF82E0C81AD10849
:1040B000E108F10898E3C91699E8D90691E4E90600
:1040C000F10408F422CFC701B60128EE33E040E046
:1040D00050E00E94CD3C69017A0117EF20919401D4
:1040E00080919D0190919E0161E0820F911D27FDBD
:1040F0009A950E94ED08DC01A70196010E94263DD9
:1041000069837A838B839C8320E233E040E050E034
:104110000E94CD3C69017A01143F99F4809192018B
:1041200090E0B0E0A0E0C12CD12C7601281739072F
:104130004A075B0730F069017A01C81AD90AEA0A0E
:10414000FB0A8EE08A9DF0018B9DF00D1124E75B48
:10415000FE4F8091730190917401982789279827C9
:104160009183808312832783308741875287C3825C
:10417000D482E582F682143F09F0C9CEA0EACA16BD
:10418000A6E8DA06A1E0EA06F10408F4D1CD8091B0
:1041900082010E944B0A853D9340C8F714B81092E3
:1041A0009B01809182010E944B0A8C0181E08093E7
:1041B0009B01809182010E944B0AAC0180917C019D
:1041C00084B9D801A41BB50B00919D0110919E01EB
:1041D000CD0104960997A8F098010E94203D6983BB
:1041E0007A838B839C839A0150E040E00E94EF3CED
:1041F00080919301820F809393010C0D111DC7FCD8
:104200001A958D819E81801B910B9A838983C1961B
:104210008336910508F08CCD99819093940188CDD7
:10422000A4E0B0E0E6E1F1E20C94403D982F862F47
:1042300040E0692F83DCE9E4F1E083819481A5818A
:10424000B68126E44281BC01CD010E94FD0F249677
:10425000E2E00C945C3DA0E1B0E0E1E3F1E20C941B
:10426000313D382E8B0180917301809376018091CE
:10427000740180937701809175018093780180911A
:104280007E0121E03212E1C190917901892B84B93C
:1042900085B9E2D740919F015091A0015A8349838B
:1042A000809182010E944B0AA981BA81A81BB90B97
:1042B000BE83AD83E0909F01F090A00180918401C6
:1042C0000E944B0AF701E81BF90B4D815E819A01B0
:1042D00050E040E029833A834B835C83C0908E0199
:1042E000D0908F01FF24F39488E49DE02DEF39E016
:1042F0002E173F0708F062C28091BF018E3109F08E
:10430000CEC18091C001982F93218460992361F0E0
:1043100031E033120BC09091CB018091730198135F
:1043200005C03092BF0182E08093C0018091C1013D
:1043300081608093C1014D815E810417150720F4CF
:10434000401B510B5E834D83AD81BE8120EF3BE26C
:1043500047E050E00E94263D9F0150E040E00E946F
:10436000CD3CAAE0B0E00E94263D50E7C51A55EECC
:10437000D50AF12CE12CA70196010E94CD3C2D8796
:104380003E874F87588B90917B0181E038128DC119
:1043900080917F0187B988B980917A01892B84B98E
:1043A00095B9809183010E94BE0A8D839E830091FE
:1043B0009F011091A001809184010E944B0A081B6B
:1043C000190BAD81BE814D01B12CA12CE0918C0166
:1043D000F0918D01B8010115110511F461E070E053
:1043E0008D819E81861B970B0E94A63C2B01712C10
:1043F000612CA0E1B7E2A50194010E94263D6D83E6
:104400007E838F839887E057F54E9F0150E040E010
:104410000E94EF3C3093D4012093D3010031110569
:1044200008F070C080917E0191E039126EC19091C8
:104430007A01982B94B985B9809183010E94BE0AB4
:1044400089879A8700919F011091A0018091840132
:104450000E944B0A081B190B49855A859A0150E0A6
:1044600040E02D833E834F83588780908C0190904D
:104470008D01A985BA8520EF3BE247E050E00E941C
:10448000263D69877A878B879C870115110511F472
:1044900001E010E0980150E040E069857A858B8565
:1044A0009C850E94CD3CAAE0B0E00E94263D30E70A
:1044B000831A35EE930AB12CA12CA50194010E9418
:1044C000CD3C29873A874B875C87421653066406A2
:1044D0007506C0F4A0E1B7E22D813E814F81588579
:1044E0000E94263D6D837E838F839887A50194016A
:1044F0000E94EF3C3093D4012093D30149845A8425
:104500006B847C848D859E85AF85B88984159505DF
:10451000A605B70508F427C1A0E1B7E229813A81D1
:104520004B815C810E94263DA70196010E94EF3CD1
:1045300049015A014D845E846F84788891E09D839F
:104540008091D7019091D801A091D901B091DA0161
:1045500084159505A605B70508F010C18093DB0109
:104560009093DC01A093DD01B093DE01B1E0B9834B
:104570008091750121E040E060917301321203C027
:10458000682F80917401DADA0E94DF0B8091C001FC
:1045900082FFFEC000914C0110914D0120914E010F
:1045A00030914F018091E4019091E501A091E601E5
:1045B000B091E70189839A83AB83BC83E0904B0180
:1045C0004091E801BC01CD010E945105813009F400
:1045D000E2C0832D84608093C00180E00E94C60AFF
:1045E0004092D7015092D8016092D9017092DA01BD
:1045F000AD81A093D0019092D6018092D501809197
:104600004C0190914D01A0914E01B0914F018093CA
:10461000E4019093E501A093E601B093E701809156
:104620004B018093E801809175018093CA01B1E04C
:104630003B12B5C0809173018093CB0180917401CE
:104640008093CC011092C801A6C090917A01892B69
:1046500084B9809183010E94BE0A8D839E838091DC
:1046600084010E944B0AFC012D813E81C901B0E00A
:10467000A0E022273327A901281B390B4A0B5B0B2B
:1046800029833A834B835C83C0908C01D0908D0149
:1046900080ED97E021ED33E042E0F42E29CE8EE16B
:1046A0008093BF013092C00146CE18B8809180013E
:1046B00087B98091790185B9892B84B920919F01AF
:1046C0003091A0013E832D83809182010E94BE0A19
:1046D0004D815E81481B590B5E834D83809184011F
:1046E0000E944B0A8C018D819E814C01B12CA12C22
:1046F000B094A09490948094811C911CA11CB11C36
:10470000E0918E01F0918F0165CE90917901892B16
:1047100084B980919F019091A0019E838D838091A7
:1047200082010E94BE0AAD81BE81A81BB90BBA8767
:10473000A987809184010E944B0A8C0129853A85C2
:10474000C901B0E0A0E022273327A901281B390BBB
:104750004A0B5B0B2D833E834F83588780908E01DD
:1047600090908F0186CE8090D3019090D401092C37
:10477000000CAA08BB08A2E0AD83E2CE4092DB01A8
:104780005092DC016092DD017092DE011982F0CE60
:104790009981911122CF6096E1E10C944D3D809179
:1047A0007301909174019827892798279093CC01E1
:1047B0008093CB0181E08093C801EDCF01361105D4
:1047C00050F72D813E818217930728F7809182014F
:1047D0000E944B0A8C01809183010E944B0A081BA6
:1047E000190B0A3F110508F0DBC08FE18093BF0170
:1047F0008F2D84618093C00131E0F312C6C0A09177
:104800008E01B0918F01A057B54E82E08093C80110
:104810008AE0809F9001819F300D11240E94113DFC
:1048200069837A838B839C838D819E819C0150E078
:1048300040E069817A818B819C810E94CD3C80918E
:104840009001909191018217930708F0A6C0281B50
:10485000390B3093D2012093D101AF2DA170DA2E04
:10486000F0FEACC0E0907901B0917F01B98390E196
:10487000C92E398137703983809184018064809397
:104880007C00F8D44AE04D83812C912C54010FEF29
:1048900013E0A8956C2D80917B010E942F0A8091D6
:1048A0007E018E2984B9DD2009F490C086B159813A
:1048B0008523E1F7E4B880917A00806480937A00E0
:1048C00080917A0086FDFCCF8091780090917900EC
:1048D000DD2009F480C0880E991EA11CB11CBD8189
:1048E000B150BD83B111D5CFC501B4012AE030E08C
:1048F00040E050E00E94EF3CA0919F01B091A001E8
:104900000E94263D20E034E040E050E00E94EF3C71
:104910003093D4012093D30180E480939C01809153
:10492000C10181608093C101809175018093CA01AA
:1049300020917301309174013227232732279091FF
:1049400074014091730151E0F5124DC04093CB01C9
:104950009093CC0140E06091CC01F0D880914C0163
:1049600090914D01A0914E01B0914F018093E401CF
:104970009093E501A093E601B093E70180914B018C
:104980008093E8010E94DF0B06CFA0918C01B091CB
:104990008D01A057B54E83E039CF30E020E059CFEC
:1049A00080E28093BF018F2D84608093C00191E0ED
:1049B00088E0F91289E08093C8014FCFE0907A0136
:1049C00020918001298381E1C82E53CF86B199813E
:1049D0008923E1F36FCFD801A81BB90B8A1A9B0A70
:1049E000A108B1087CCF3093CC012093CB01B2CF8A
:1049F0008F929F92BF92CF92DF92EF92FF920F938E
:104A00001F93CF93DF9300D000D000D0CDB7DEB797
:104A10009091BF01913009F460C1A8950E943F0BAD
:104A200015B880917A0184B980917F0187B988B9DE
:104A300060E180917B010E942F0A809183010E9496
:104A4000BE0A8D839E8380917A0190917B01892B90
:104A500084B9809183010E94BE0A9C0180917A01F1
:104A600084B94D815E812417350728F4253031053E
:104A700010F43E832D838D819E81813D934028F1EA
:104A800061E180917B010E942F0A809183010E9445
:104A9000BE0A8D839E8380917B0185B990917A01B6
:104AA000892B84B9809183010E94BE0A9C0115B8AC
:104AB00080917A0184B94D815E812417350728F4ED
:104AC0002530310510F43E832D838D819E814097E2
:104AD00008F015C18091C1018111F2C080917A0165
:104AE00084B915B880917F0187B988B9BAD380910C
:104AF0007A0190917B01892B84B9809183010E9476
:104B0000BE0A8F359D4020F06D817E8182E0A3DB5F
:104B10008091C1018111D4C08091800187B918B8FA
:104B20008091790190917B01892B84B985B980911D
:104B300082010E94BE0A8034964008F065C08091D0
:104B400084010E944B0A8C01809183010E944B0AD0
:104B50007C0160E180917B010E942F0A809182019B
:104B60000E94BE0A6C0115B87CD38091790185B989
:104B7000809182010E94BE0A40E4C41646E0D40639
:104B800008F0F8C28133914108F4F4C214B815B8A2
:104B90008091800188B965D38091790184B9809131
:104BA00082010E94BE0A853F910508F0E3C260E1E0
:104BB00080917B010E942F0A809182010E94BE0A8F
:104BC0006C018DEDC81682E0D80608F0A4C282E21E
:104BD0008093BF018091C10181608093C1018AE00F
:104BE0008093C801809175018093CA0180917301FF
:104BF0008093CB01809174018093CC010E191F0921
:104C00001093D2010093D1018091C1019091C30111
:104C1000892B09F055C00E943F198091C301813052
:104C200009F04EC09091AB019D832091AC01309171
:104C3000AD014091AE015091AF0129833A834B837E
:104C40005C83E12C08EB1BE020E030E0492F698118
:104C50007A818B819C810E945105813009F094C238
:104C600008E91AE320E030E04D8169817A818B8187
:104C70009C810E9451058F3F09F086C21092C301AA
:104C800015B880917A0184B980917F0188B987B97C
:104C9000809183010E94BE0A89839A8380917B015F
:104CA00085B990917A01892B84B9809183010E9402
:104CB000BE0A9C0149815A814817590708F467C206
:104CC0008091BF01882319F08A3009F091C20E94B7
:104CD0003F1917B818B814B815B826960FB6F89437
:104CE000DEBF0FBECDBFDF91CF911F910F91FF901F
:104CF000EF90DF90CF90BF909F908F90089580911C
:104D0000C10181119DC1AD81BE8198E2C92ED12C16
:104D1000AB3EB14020F088EEC82EDD24D3948091C4
:104D20007A0190917E01892B84B9809183010E9440
:104D3000370B8C0180917E0185B9809183010E949F
:104D4000370B9C017C01E01AF10AC8018C0D9D1DF6
:104D50008217930708F086C080917B0184B985B9DA
:104D600018B88091800187B9809184010E94370B27
:104D700017B8BB24B3948C3B924020F00630110549
:104D800008F0B12C80917F0187B9809184010E9445
:104D9000370B8C01809182010E944B0A17B8801753
:104DA000910738F4081B190B023C114010F4BB2486
:104DB000B3948091800188B987B9809179019091ED
:104DC0007E01892B84B915B8809182010E94370B2E
:104DD0004C0180917E0185B9809182010E94370B40
:104DE0008C010819190918B88091800187B9809140
:104DF000790190917E01892B84B985B980918401D4
:104E00000E94370B88349F4030F189E18093C001C4
:104E100084E08093C8018FE18093BF018091C1013C
:104E200081608093C101409175014093CA018091D6
:104E30007301909174019827892798273091740104
:104E4000209173010E151F0508F47BC09093CC01CF
:104E50008093CB017AC0B11005C089E28093C00174
:104E600086E0D7CF18B88091800187B98091790109
:104E700090917E01892B84B985B9809182010E942D
:104E8000370B8C018091790185B9809182010E9454
:104E9000370B7801E81AF90AC80ED91EC016D106D8
:104EA00008F0CEC0C0909F01D090A00180917B01FE
:104EB00084B915B880917F0187B988B98091840140
:104EC0000E94370B18B88D3C904188F5C6010C97AD
:104ED000DD24D3940817190708F4D12C80917F01A1
:104EE00087B980917A0190917E01892B84B985B927
:104EF000809183010E94370B8C0180917A0185B9E2
:104F0000809183010E94370B081B190B15B8809103
:104F10007F0188B987B9809184010E94370B813D58
:104F2000934040F48AE18093C00185E072CFDD2494
:104F3000D394D4CFD11084C08AE28093C00187E09B
:104F400068CF2093CB013093CC01C70162E370E0BE
:104F50000E94A63CC701861B970B0817190750F043
:104F60006E0D7F1D6017710728F08091C00180646D
:104F70008093C0016091CC018091CB010E943F0BD6
:104F80008091800190918101892B87B9909179015D
:104F900094B92091C00120FFAAC018B895B900911A
:104FA0009F011091A001809182010E94370B98010E
:104FB000281B390B40918E0150918F014057554E5F
:104FC000A0E1B7E20E94113D9A0150E040E00E944A
:104FD000CD3C2093DF013093E0014093E1015093F9
:104FE000E2018AEF8093E30180917D0190917E013F
:104FF000892B84B990917F0197B92091C00120FF3E
:1050000082C015B898B92CD1809183010E944B0AB7
:105010008C01809184010E944B0A801B910B90931C
:10502000D6018093D5012091C00120FF6FC080542C
:105030009D4E813C924120F01092D6011092D501F4
:105040008091C1014D815E81413D534008F442CDC4
:1050500081114AC0809182010E944B0A89839A8300
:10506000809183010E944B0A7C01809184010E94FF
:105070004B0A8C0117B880917F0188B980917E011D
:1050800085B990917A01892B84B982E390E00E94DE
:10509000F30580917F0187B9809183010E944B0ABB
:1050A0000A9710F583E28093C2018CE08093C901D6
:1050B00080917501809385018091730180938601B1
:1050C000809174018093870189819A818E199F094B
:1050D000909389018093880129813A81201B310BAB
:1050E00030938B0120938A010E948C0CE9CD88B902
:1050F00015B8809182010E94370B9C0140918C0170
:1051000050918D015BCF85B918B87DCF813C92411C
:1051100008F092CF95CF8091790185B9A2D015B8CA
:10512000809182010E94BE0A853F910518F5809109
:10513000BF01813229F48091C10181608093C10156
:1051400081E28093BF018BE08093C8018091D701F9
:105150009091D8018C159D0508F056CDC601B0E0A0
:10516000A0E08093D7019093D801A093D901B09388
:10517000DA0138CD8091BF01813209F445CD6D81CE
:105180007E8181E068D840CD1092C30199CDA9817C
:10519000BA818A1B9B0B893E934008F491CD809184
:1051A000C2018432B9F084E28093C2018DE0809321
:1051B000C90180917501809385018091730180936D
:1051C0008601809174018093870130938901209337
:1051D000880176CD8091C10182608093C101809168
:1051E0008801909189012817390708F469CDDBCF30
:1051F0008F3109F06ECD9091C00194FF6ACD60911E
:10520000CB018091CC0190FF03C0962F682F892F8E
:105210000E947806892B09F45CCD1092BF01109290
:10522000C0018091C1018E7F8093C10152CD1F9238
:105230001FB61F9211241092B1001F901FBE1F9025
:10524000189503D002D001D000D000D003D002D0F6
:1052500001D000D0A89500D003D002D001D000D05A
:1052600000D003D002D001D000D000D003D002D0B3
:1052700001D000D000D003D002D001D000D000D0A7
:1052800003D002D001D000D000000895CDB7DEB722
:10529000C858D1090FB6F894DEBF0FBECDBF80E469
:1052A0008AB98BB980E185BF86E880937A0084B79C
:1052B000887094B7977F94BF0FB6F894A895909193
:1052C0006000986190936000109260000FBE109291
:1052D000970192E09093980196E0909399019AB18A
:1052E0009C609AB99BB1937F9BB99091970198600C
:1052F000909397019AB193609AB9589A8823F1F0E4
:105300000E94FE0782E00E94D20789EB92E00E9491
:105310006C0F0E94EA1182EB92E00E946C0F80ED0C
:1053200097E00E94F3055E9890E080E0C857DF4F59
:105330000FB6F894DEBF0FBECDBF089510E04F9BAF
:1053400054C18091970180FF05C0809198018062CF
:1053500080939801589898DF589A96DF80E40E94CD
:10536000AD0781EA0E94AD0788EC0E94AD0782EA92
:105370000E94AD078FE20E94AD0788EF0E94AD0743
:1053800080E00E94AD0787E20E94AD078FE00E9497
:10539000E3088CEA0E94AD0780E00E94AD078FEA27
:1053A0000E94AD0780E18093EC0188E08093ED01DD
:1053B0008FE38093EE0183E08093F0018093F1010D
:1053C0000E94FE071092E901133009F01AC10E94F1
:1053D0005A0680919501803410F40E94E30882E01F
:1053E0000E94D20781EA92E00E946C0F0E94EA11AB
:1053F0008AE992E00E946C0F8CED95E00E94F30523
:105400001092BE0189E180939A0181E080939B0113
:1054100080939C0189E893E19093A00180939F0180
:1054200088E19FE00FB6F894A895809360000FBEC6
:10543000909360007894CE010396EE968FAFEE972E
:10544000EF969FAFEF971092BF011092C00110929C
:10545000C1011092C2011092C4011092C3011092B6
:10546000D0011092D2011092D1011092D401109269
:10547000D3011092D6011092D5011092D70110924B
:10548000D8011092D9011092DA011092DB0110922A
:10549000DC011092DD011092DE011092DF0110920A
:1054A000E0011092E1011092E20110928901109244
:1054B000880110928B0110928A0183E08093EF01A2
:1054C00017B882E08093E9010E94FE078EE00E94F7
:1054D0004B0A90939E0180939D0188EC80939A01E2
:1054E0008EE00E944B0A20919301820F911D27FDAF
:1054F0009A9590939E0180939D0189E180939A01F2
:105500000E94F7100E94BA1081E00E94D207809199
:10551000EC0181508093EC018FE892E00E946C0FC7
:105520008091EC018F5F8093EC010E94E50B8091EC
:10553000BF01813009F490C042E061E080E058DAB8
:1055400042E060E081E054DA41E062E080E050DA7D
:1055500041E060E082E04CDA40E062E081E048DA7D
:1055600040E061E082E044DA8091C2018823E1F00A
:105570009091C10190FD18C091FD04C09091BF01B0
:105580009E3190F48093BF01809185018093CA0180
:10559000809186018093CB01809187018093CC011B
:1055A0008091C9018093C8018091BF01813209F4C3
:1055B0006DC060F58F3109F461C095E423E4803259
:1055C00009F462C095E423E432E48E3139F190E0CD
:1055D00020E030E023C01F5F153639F413E08091DE
:1055E0009701816080939701ACCE84E190E00E94A6
:1055F000F3054F9BF0CF103110F411E0A2CE12E072
:10560000EECF61E081E00E944112E3CE843208F4E3
:1056100040C091E322E335E48432C9F63093CD01F2
:105620002093CE019093CF01882311F08A30A1F40A
:105630000E94AC0883E40E940A0840E060E082E037
:105640000E949E1D41E061E082E00E949E1D42E0BA
:1056500060E081E00E949E1D0E94FE0783E080932F
:10566000E901E091BF01E130D1F0EA50EB3108F0FF
:1056700043C0F0E0E951F24C0C940B3D9091C00115
:1056800096FD0AC093E524E437E4C8CF91E322E312
:10569000FBCF93E421E4F8CF98E728E7F5CF80919A
:1056A000C001813031F58EE091E00E94450F0E94EB
:1056B000EA118091C5010E943D080E94B1080E9434
:1056C000AC088091C6019091C7019C0150E040E078
:1056D000E7962CAF3DAF4EAF5FAFE79726E54DEFB6
:1056E000E7966CAD7DAD8EAD9FADE7970E94FD0F47
:1056F00076C1823009F0A8C00E946B1370C1D090AF
:10570000C40131E0D31211C0B090260199249394C2
:1057100075E0C72EE5E0AE2E10E000E085E2E82E51
:1057200081E0F82E95E0D92E66C042E0D4121EC06A
:10573000D090250180912B01B0902601C0902C01C2
:10574000D81609F49EC0CB1409F461C1DC1003C063
:105750008B1509F455C199249394F5E0CF2EA5E05B
:10576000AA2E0BE211E0B5E0BB2ED8CF53E0D51244
:1057700061C0E12C96E02E2D30E08E2D00E09E9D44
:10578000F0011124EA5DFE4F602F70E0081709F464
:105790004CC0969FA001979F500D11244B5D5E4F0A
:1057A0006081DA014C91641340C045E085E04F5FB1
:1057B0004330C8F18F5F8330A0F18530C0F1B6E08F
:1057C0000B9F800111240B5D1E4F46E0E49E70018B
:1057D0001124F701EB5DFE4F7F01429FF001439FD3
:1057E000F00D1124EB5DFE4FB1809924939455E0A8
:1057F000C52E65E0A62ED7018C910E943D0881E25E
:1058000091E00E94450F8B2D0E943D080115110566
:1058100009F45CC0DB100DC1F801B0808DE191E0AE
:1058200050C0E82EA8CF042FAFCF402FC0CF10E03C
:1058300000E0CBCF81E291E00E946A0F80E38D0D02
:105840000E940A081092BE01CE014496C957DF4F4C
:105850008883C758D040C857DF4F9883C858D04076
:105860001092E9016EE188EB9BE00E942511811105
:10587000A4C38091BE01853008F4E5CD0E94950F48
:1058800053CDAB2C15E099249394F2E0FD1508F468
:10589000C5C08B2D0E943D088DE191E00E94450F0F
:1058A0008D2D0E943D0825E2E22E21E0F22ED11638
:1058B00009F4BCC00BE211E0D8011196BC9081E262
:1058C00091E00E94450F8B2D0E943D08F4E0FA15EF
:1058D000E8F06C2D8A2D0E94D11B8130B9F40E9412
:1058E000AC0822E08AE391E02D1510F48EE391E0FC
:1058F0000E94450F8FE30E940A080E94EA1161E3AB
:105900006C0D81E38A0D0E949B10912C87EE92E032
:105910000E948812D70112968D919C919C0150E0B3
:1059200040E0E7962CAF3DAF4EAF5FAFE79726E57F
:105930004DEFE7966CAD7DAD8EAD9FADE7970E94C4
:10594000FD0F0E94AC080115110509F077C0D701C1
:1059500014968D919C918A3F9105E0F488E20E9413
:105960000A08F701848195819C0150E040E0E796A8
:105970002CAF3DAF4EAF5FAFE79720E040E0E7963A
:105980006CAD7DAD8EAD9FADE7970E94FD0F89E2B6
:105990000E940A08D7016C9111968C910E949D0B70
:1059A00081E00E94C60A89E191E00E94951231E0EF
:1059B000931215C087E191E00E948812D7011196D9
:1059C0006C9111978C910E9410210115110539F0ED
:1059D0000E94AC08F801618180810E9410218091B1
:1059E000BF018E3138F08091EF01882309F42ACF6E
:1059F0000E940A138091BF018A3008F425CF22CF7C
:105A00001D2D912C35E0C32E45E0A42E3ECFC82E8F
:105A1000AD2C992493940BE211E080CEB12E0BE2D1
:105A200011E0E5E2EE2EE1E0FE2EE5CE0BE211E024
:105A3000F3CEF3E0FD1508F4EFCE3ECFF8018281FE
:105A400093819C0150E040E0E7962CAF3DAF4EAF14
:105A50005FAFE79726E54DEFE7966CAD7DAD8EAD78
:105A60009FADE7970E94FD0FA2CF9090C001B0902C
:105A7000CC010091CA011091CB016801AB2C6EE3FF
:105A8000E62E61E0F62E90FC0AC0D02EC12EA12E8B
:105A90001B2D0B2DBD2C7AE3E72E71E0F72E8DE345
:105AA00092E00E946A0FC7010E94450F92FE03C058
:105AB0008BE20E940A080E94EA110E945208612F9C
:105AC0008A2D0E9478067C01892B59F00E94AC082F
:105AD0008A2D0E94400881E00E940A08812F0E94BE
